:020000040800F2
:100000000000022029A000085D8600085F86000825
:10001000618600086386000865860008000000000D
:10002000000000000000000000000000815E0008E9
:100030006786000800000000215F0008698600084C
:1000400079A0000879A0000879A0000879A000082C
:1000500079A0000879A000087F86000879A0000830
:1000600079A00008898600089386000879A0000816
:1000700079A0000879A0000879A0000879A00008FC
:1000800079A0000879A0000879A0000879A00008EC
:100090009D86000879A0000879A00008AD860008B8
:1000A00079A0000879A0000879A0000879A00008CC
:1000B00079A0000879A0000879A0000879A00008BC
:1000C00079A0000879A0000879A0000879A00008AC
:1000D00079A0000879A0000879A00008DD9E00083A
:1000E00079A0000879A0000879A0000879A000088C
:1000F00079A0000879A0000879A0000879A000087C
:1001000079A0000879A0000879A0000879A000086B
:1001100079A0000879A0000879A0000879A000085B
:1001200079A00008B986000879A0000879A0000825
:1001300079A0000879A0000879A0000879A000083B
:10014000C986000879A0000879A00008D9860008AF
:1001500079A00008E9860008F986000879A000085F
:1001600079A0000879A0000879A0000879A000080B
:1001700079A0000879A0000879A00008000000001C
:0801800079A0000879A0000835
:1001900010B5054C237833B9044B13B10448AFF3C1
:1001A00000800123237010BD4404002000000000E3
:1001B000F0B6000808B5034B1BB103490348AFF381
:1001C000008008BD0000000048040020F0B60008D0
:1001D00070B54FF0FF0C4CF4E06C1CEA11541DBFDD
:1001E0001CEA135594EA0C0F95EA0C0F00F0DEF8A8
:1001F0002C4481EA030621EA4C5123EA4C5350EA8D
:10020000013518BF52EA033541F4801143F48013DD
:1002100038D0A0FB02CE4FF00005E1FB02E506F06E
:100220000042E0FB03E54FF00006E1FB03569CF0C3
:10023000000F18BF4EF0010EA4F1FF04B6F5007FC9
:1002400064F5407404D25FEA4E0E6D4146EB06063B
:1002500042EAC62141EA55514FEAC52040EA5E50C4
:100260004FEACE2EB4F1FD0C88BFBCF5E06F1ED86E
:10027000BEF1004F08BF5FEA500E50F1000041EBA5
:10028000045170BD06F0004646EA010140EA020052
:1002900081EA0301B4EB5C04C2BFD4EB0C0541EA74
:1002A000045170BD41F480114FF0000E013C00F389
:1002B000AB8014F1360FDEBF002001F0004170BDAD
:1002C000C4F10004203C35DA0C341BDC04F11404C6
:1002D000C4F1200500FA05F320FA04F001FA05F252
:1002E00040EA020001F0004221F0004110EBD3701F
:1002F00021FA04F642EB06015EEA430E08BF20EA4B
:10030000D37070BDC4F10C04C4F1200500FA04F3ED
:1003100020FA05F001FA04F240EA020001F000417F
:1003200010EBD37041F100015EEA430E08BF20EAF2
:10033000D37070BDC4F1200500FA05F24EEA020E3A
:1003400020FA04F301FA05F243EA020321FA04F069
:1003500001F0004121FA04F220EA020000EBD37020
:100360005EEA430E08BF20EAD37070BD94F0000F20
:100370000FD101F00046400041EB010111F4801F54
:1003800008BF013CF7D041EA060195F0000F18BF05
:10039000704703F00046520043EB030313F4801F41
:1003A00008BF013DF7D043EA0603704794EA0C0FFB
:1003B0000CEA135518BF95EA0C0F0CD050EA410611
:1003C00018BF52EA4306D1D181EA030101F000418E
:1003D0004FF0000070BD50EA410606BF10461946B6
:1003E00052EA430619D094EA0C0F02D150EA0136C2
:1003F00013D195EA0C0F05D152EA03361CBF104603
:1004000019460AD181EA030101F0004141F0FE41A1
:1004100041F470014FF0000070BD41F0FE4141F425
:10042000780170BD81F0004102E000BF83F000431D
:1004300030B54FEA41044FEA430594EA050F08BF7F
:1004400090EA020F1FBF54EA000C55EA020C7FEA43
:10045000645C7FEA655C00F0E2804FEA5454D4EBC0
:100460005555B8BF6D420CDD2C4480EA020281EA8A
:10047000030382EA000083EA010180EA020281EAC2
:100480000303362D88BF30BD11F0004F4FEA013114
:100490004FF4801C4CEA113102D0404261EB410123
:1004A00013F0004F4FEA03334CEA133302D05242A9
:1004B00063EB430394EA050F00F0A780A4F1010465
:1004C000D5F1200E0DDB02FA0EFC22FA05F280189F
:1004D00041F1000103FA0EF2801843FA05F3594185
:1004E0000EE0A5F120050EF1200E012A03FA0EFC04
:1004F00028BF4CF0020C43FA05F3C01851EBE3712E
:1005000001F0004507D54FF0000EDCF1000C7EEB4A
:1005100000006EEB0101B1F5801F1BD3B1F5001F88
:100520000CD349085FEA30004FEA3C0C04F10104A7
:100530004FEA445212F5800F80F09A80BCF1004FD0
:1005400008BF5FEA500C50F1000041EB045141EA52
:10055000050130BD5FEA4C0C404141EB0101013C1B
:1005600028BFB1F5801FE9D291F0000F04BF01460A
:100570000020B1FA81F308BF2033A3F10B03B3F1DC
:1005800020020CDA0C3208DD02F1140CC2F10C026C
:1005900001FA0CF021FA02F10CE002F11402D8BFCA
:1005A000C2F1200C01FA02F120FA0CFCDCBF41EA96
:1005B0000C019040E41AA2BF01EB0451294330BD65
:1005C0006FEA04041F3C1CDA0C340EDC04F1140442
:1005D000C4F1200220FA04F001FA02F340EA030019
:1005E00021FA04F345EA030130BDC4F10C04C4F15F
:1005F000200220FA02F001FA04F340EA030029463F
:1006000030BD21FA04F0294630BD94F0000F83F488
:10061000801306BF81F480110134013D4EE77FEA6B
:10062000645C18BF7FEA655C29D094EA050F08BFB7
:1006300090EA020F05D054EA000C04BF1946104698
:1006400030BD91EA030F1EBF0021002030BD5FEADC
:10065000545C05D14000494128BF41F0004130BD04
:1006600014F580043CBF01F5801130BD01F0004558
:1006700045F0FE4141F470014FF0000030BD7FEACB
:10068000645C1ABF194610467FEA655C1CBF0B46C6
:10069000024650EA013406BF52EA033591EA030FDD
:1006A00041F4002130BD00BF90F0000F04BF0021D5
:1006B000704730B54FF4806404F132044FF0000508
:1006C0004FF0000150E700BF90F0000F04BF002181
:1006D000704730B54FF4806404F1320410F00045E7
:1006E00048BF40424FF000013EE700BF42004FEAE2
:1006F000E2014FEA31014FEA02701FBF12F07F435F
:1007000093F07F4F81F06051704732F07F4208BF15
:10071000704793F07F4F04BF41F40021704730B51C
:100720004FF4607401F0004521F000411CE700BF68
:1007300050EA010208BF704730B54FF000050AE0EB
:1007400050EA010208BF704730B511F0004502D5EC
:10075000404261EB41014FF4806404F132045FEAEE
:10076000915C3FF4D8AE4FF003025FEADC0C18BF97
:1007700003325FEADC0C18BF033202EBDC02C2F189
:10078000200300FA03FC20FA02F001FA03FE40EA1B
:100790000E0021FA02F11444BDE600BF4FF0FF3C09
:1007A00006E000BF4FF0010C02E000BF4FF0010C6B
:1007B0004DF804CD4FEA410C7FEA6C5C4FEA430CE4
:1007C00018BF7FEA6C5C1BD001B050EA410C0CBF33
:1007D00052EA430C91EA030F02BF90EA020F002095
:1007E000704710F1000F91EA030F58BF994208BFFC
:1007F00090422CBFD8176FEAE37040F001007047B9
:100800004FEA410C7FEA6C5C02D150EA013C07D10F
:100810004FEA430C7FEA6C5CD6D152EA033CD3D05A
:100820005DF8040B704700BF8446104662468C4654
:100830001946634600E000BF01B5FFF7B7FF002887
:1008400048BF10F1000F01BD4DF808EDFFF7F4FFB0
:100850000CBF012000205DF808FB00BF4DF808ED3B
:10086000FFF7EAFF34BF012000205DF808FB00BF5E
:100870004DF808EDFFF7E0FF94BF012000205DF880
:1008800008FB00BF4DF808EDFFF7CEFF94BF012035
:1008900000205DF808FB00BF4DF808EDFFF7C4FF2E
:1008A00034BF012000205DF808FB00BF4FEA410281
:1008B00012F5001215D211D56FF47873B3EB6252B2
:1008C00012D94FEAC12343F0004343EA505311F0D9
:1008D000004F23FA02F018BF404270474FF000006B
:1008E000704750EA013005D111F0004008BF6FF0A9
:1008F000004070474FF00000704700BF4FEA4102D0
:10090000B2F1E04324BFB3F5001CDCF1FE5C0DD96D
:1009100001F0004C4FEAC0024CEA5070B2F1004FB7
:1009200040EB830008BF20F00100704711F0804FBA
:1009300021D113F13872BCBF01F00040704741F47F
:1009400080114FEA5252C2F11802C2F1200C10FA83
:100950000CF320FA02F018BF40F001004FEAC12367
:100960004FEAD32303FA0CFC40EA0C0023FA02F30B
:100970004FEA4303CCE77FEA625307D150EA0133E1
:100980001EBF4FF0FE4040F44000704701F00040B1
:1009900040F0FE4040F40000704700BF53B94AB930
:1009A000002908BF00281CBF4FF0FF314FF0FF3077
:1009B00001F0DEB8ADF1080C6DE904CE00F006F8E8
:1009C000DDF804E0DDE9022304B070472DE9F047CB
:1009D000089D04468E46002B4DD18A42944669D923
:1009E000B2FA82F252B101FA02F3C2F1200120FA06
:1009F00001F10CFA02FC41EA030E94404FEA1C4854
:100A0000210CBEFBF8F61FFA8CF708FB16E341EA4F
:100A1000034306FB07F199420AD91CEB030306F1D5
:100A2000FF3080F01F81994240F21C81023E6344F6
:100A30005B1AA4B2B3FBF8F008FB103344EA03449A
:100A400000FB07F7A7420AD91CEB040400F1FF33AF
:100A500080F00A81A74240F207816444023840EAEC
:100A60000640E41B00261DB1D4400023C5E9004325
:100A70003146BDE8F0878B4209D9002D00F0EF80A8
:100A80000026C5E9000130463146BDE8F087B3FADB
:100A900083F6002E4AD18B4202D3824200F2F980C3
:100AA000841A61EB030301209E46002DE0D0C5E9C6
:100AB000004EDDE702B9FFDEB2FA82F2002A40F012
:100AC0009280A1EB0C014FEA1C471FFA8CFE012615
:100AD000200CB1FBF7F307FB131140EA01410EFBB9
:100AE00003F0884208D91CEB010103F1FF3802D260
:100AF000884200F2CB804346091AA4B2B1FBF7F05A
:100B000007FB101144EA01440EFB00FEA64508D97C
:100B10001CEB040400F1FF3102D2A64500F2BB80B9
:100B20000846A4EB0E0440EA03409CE7C6F1200708
:100B3000B34022FA07FC4CEA030C20FA07F401FA4E
:100B400006F31C43F9404FEA1C4900FA06F3B1FBD7
:100B5000F9F8200C1FFA8CFE09FB181140EA01413C
:100B600008FB0EF0884202FA06F20BD91CEB0101D9
:100B700008F1FF3A80F08880884240F28580A8F131
:100B800002086144091AA4B2B1FBF9F009FB101183
:100B900044EA014100FB0EFE8E4508D91CEB010121
:100BA00000F1FF346CD28E456AD90238614440EAC4
:100BB0000840A0FB0294A1EB0E01A142C846A64644
:100BC00056D353D05DB1B3EB080261EB0E0101FACD
:100BD00007F722FA06F3F1401F43C5E9007100262A
:100BE0003146BDE8F087C2F12003D8400CFA02FC80
:100BF00021FA03F3914001434FEA1C471FFA8CFE90
:100C0000B3FBF7F007FB10360B0C43EA064300FB7F
:100C10000EF69E4204FA02F408D91CEB030300F11D
:100C2000FF382FD29E422DD9023863449B1B89B2D4
:100C3000B3FBF7F607FB163341EA034106FB0EF35D
:100C40008B4208D91CEB010106F1FF3816D28B420A
:100C500014D9023E6144C91A46EA004638E72E46D6
:100C6000284605E70646E3E61846F8E64B45A9D2CE
:100C7000B9EB020864EB0C0E0138A3E74646EAE73D
:100C8000204694E74046D1E7D0467BE7023B6144EB
:100C900032E7304609E76444023842E703685A0005
:100CA0004CBF43F0004323F000431844704700BF9B
:100CB0002DE9F84329B34F1E044615463E464FF032
:100CC000000808EB060101EBD171491004EBC109E2
:100CD0004846FFF7E3FF0346C80008308F42204430
:100CE00009D0AB4209D8FFF7D9FF0138A8420AD290
:100CF00001F10108E5E7AB4205D9884501D04E1E58
:100D0000DFE74FF000094846BDE8F883012807D027
:100D1000022807D0044B00280CBF1846002070475B
:100D20000248704702487047E5130008E9130008BD
:100D3000ED13000830B5234B83B004468D1E3BB342
:100D400001A92846AFF30080E8B101992A46FFF7D0
:100D5000AFFF0146B8B1FFF7A1FF4B68A064012BBC
:100D60002CD0002B01F1040024DBFFF797FF0023B8
:100D7000C4E913030368002B11DBFFF78FFF206129
:100D8000002003B030BD00230920236103B030BD33
:100D90000D4B0E49C91AC91018460191D6E7C3F385
:100DA0000360FFF7B3FF0028206114BF0020092073
:100DB00003B030BD0123C4E91303DBE70023236143
:100DC0000520DEE700000000BCB90008FCBA0008FE
:100DD0000368DA0710B5044606D49B0700F1480003
:100DE00009D500F05BFC2368590709D51A070ED511
:100DF000DB0613D510BD00F049FC23685907F5D474
:100E000004F1D00000F052FC23681A07F0D404F576
:100E1000A87000F053FC2368DB06EBD404F5E870FF
:100E2000BDE8104000F08EBC092070470346006802
:100E300000B11844704700BF704700BF70B504464A
:100E40000E46316C2046FFF775FF054688B9326CB7
:100E50006261236932462146012098470828F0D074
:100E6000072806D12846316CFFF7E6FF301D00F059
:100E700001FC0AF003FB00BF2DE9F0470D1DD0F87F
:100E80000C80D0F81890074614460FCDADF5727D52
:100E90000DF10C0CACE80F000FCDACE80F000FCD3E
:100EA000ACE80F0095E80F0002AE4FF0000E8CE8A2
:100EB0000F00C6F800E020E0336C7B614FF4F07265
:100EC00031467AA800F056FE3B697AAA3946504668
:100ED0009847889B73642146CDE9006905463B46E7
:100EE0003A460120C0470446E0B94FF4F0727AA9AF
:100EF000304600F03FFE082D1AD1316C3846FFF71E
:100F000019FF09345FFA84FA05460028D4D0B36B80
:100F100073643A46CDE900693B464AF0100101206E
:100F2000C04700B1092528460DF5727DBDE8F08760
:100F3000072DF7D12046316CFFF77EFF03A800F0A4
:100F400099FB00BF406C7047F0B5CB6B0B6401F1AF
:100F5000040C0E460546BCE80F00F9B001AC0FC406
:100F6000BCE80F000FC4BCE80F000FC49CE80F00E2
:100F70004FF0FF3784E80F00009706E02B696A46C0
:100F8000294698470828044608D110992846FFF7B3
:100F9000D1FE0028F2D0092079B0F0BD6846FFF7F5
:100FA00017FF062CF7D131462846FFF747FF00BF51
:100FB000C160D96B82611964002219465CE700BFE9
:100FC00070B5C66843690B64AEB903690A46044646
:100FD0000D46014602209847072805D008280FD162
:100FE00029462046FFF72AFF3046296CFFF724FFE9
:100FF000281D00F03FFB0122FFF73EFF0AF03EFAFA
:101000000AF03CFAC2681AB1CA6B0A64002233E7DC
:101010009AE700BF704700BF836801460BB101200B
:1010200018477047012912D009D873B90F2A0CD874
:1010300000EB820218465368009A13607047033928
:10104000012994BF01200220704702207047084602
:10105000704700BF00B585B00A46002303A9009180
:101060001946FFF7DFFF039805B05DF804FB00BFEA
:10107000012912D009D873B90F2A0CD800EB8200CD
:10108000009A12684260184670470339012994BFDC
:10109000012002207047022070470846704700BFB9
:1010A00010B584B0002303AC039200940A4619469D
:1010B000FFF7DEFF04B010BD70B5D36B136402F10F
:1010C000040C05460C46BCE80F00ADF50E7D0DF195
:1010D0005C0EAEE80F00BCE80F00AEE80F00BCE805
:1010E0000F00AEE80F009CE80F004FF0FF368EE8CF
:1010F0000F00169610E0FFF7D3FF214616A8A84769
:10110000034616AA6946082083B9049B9847052818
:1011100006460CD0092809D026996846FFF70AFE32
:1011200003466A460C2116A8002BE4D0092616A80F
:10113000FFF74EFE30460DF50E7D70BD2DE9F04FE8
:10114000CC6C89B01E4654F8043B06940D461746F5
:1011500000F00308002E79D01A0C1B0405938DF8BB
:101160001D200223D2B204EB82048DF81C302B6DBB
:10117000B8F1020F08BFAC6B13F001030CD005A946
:10118000384600F079FB18B9082009B0BDE8F08FA7
:10119000092009B0BDE8F08FD4F800A0BAF1000F23
:1011A000EDD0019300F008030293022E4AD0B4F868
:1011B00000A0B4F802900434AB6C29F0010B0F21AD
:1011C00038469B44FFF746FF834539D82AF0010390
:1011D0009B44834594BF002001204FEA490303F05C
:1011E00002030AF0010A43EA0A03012B49D0022B49
:1011F00032D0002BCCD1B8F1000F02D0002840F043
:10120000CD800434D4F800A0BAF1000FCDD105A9E7
:10121000384600F031FB0028BAD1019B002BB3D037
:101220000F213846FFF716FF0E2102463846FFF71A
:1012300037FF38466A4A0F21FFF732FF0720A8E739
:101240000020CAE7D4F804900834B5E71B020593E0
:101250000323ADF81C308AE7236823F0004BB8F174
:10126000000F45D128B1029A002A5CD0BBF1000FD3
:1012700074D0002B00DA04340BF1010B04EB8B0467
:10128000C0E7B8F1000F19D1B0B163682268991CAA
:101290004FEAD2723FF47CAF05F15801013304915B
:1012A00000F09080201DFFF7C1FD04AB01462846E9
:1012B000AFF3008000285BD10834A3E70D21384646
:1012C000D5F82090FFF7C6FE8145F5D1AB6A9C4268
:1012D000F2D12046FFF7E2FC0F2102463846FFF725
:1012E000DFFE38462A460021FFF7DAFE072050E7E6
:1012F0000D213846D5F82090FFF7ACFE814501D08E
:101300002368B6E7AB6A9C42FAD104230022C5E900
:101310000B23E318C5F828B06B632368002B59DB57
:1013200001230193A8E705F15803CDF80C8004F1DF
:10133000040AB04691461E460EE050460496FFF75A
:1013400075FD0022014604AB284609F101090AF1A6
:10135000040AAFF30080E0B9D945EED10D2138463B
:10136000FFF778FE049BAC62C5E90803062010E78E
:1013700081460D213846FFF76DFEB9F1020F286254
:1013800025D12B46049A43F82C2F6B62AC620620C1
:10139000FFE646462368DDF80C806AE72046FFF743
:1013A0007DFC04340246AC6328461446AFF300804B
:1013B00000283FF4EDAE384622460F21FFF770FEBD
:1013C0000720E6E60D213846FFF744FE2862049B1D
:1013D0006B62DBE70BF1010004EB80007AE700BFF2
:1013E000000000000023A9E60123A7E60223A5E6EA
:1013F0002DE9F0430646C3B015461C46042900F209
:10140000BF80DFE801F09E57BD2D0300002C40F0A7
:10141000B780102A00F2B4800368D80600F1F98082
:1014200020AF384600F098F9B46B394600234FF0EE
:10143000010C0CFA03F22A42204603F1010303D007
:1014400050F8042B0A600446042B01F10401F0D18A
:101450003846B46300F076F9002043B0BDE8F0836D
:10146000032C40F08D8094B204EB1243102B4FEA12
:10147000124500F2858003681F0700F1D28020AF7B
:10148000384600F03DF9B26B07EBC50154B10B468D
:10149000D01A01EBC401E4001D5843F8045B8B42F1
:1014A000FAD122443846B26300F008F9002043B074
:1014B000BDE8F083012C4FEA124895B25CD0052CB0
:1014C0005ED108EB0509B9F1200F59D8B8F10F0F1B
:1014D00079D9A946002D40F08A80B36B6DB320AF57
:1014E0004FF0000907EBC807043F03EBC50553F8AD
:1014F000041B47F8041FAB42F9D1B9F1000F0FD01C
:101500006F464146102938BF102107EBC1018439CD
:1015100003EBC90553F8040B41F8040FAB42F9D1B2
:10152000012C00F08680B8F10F0FB56347D9B9F1EF
:10153000000F02D0684600F0B9F8002043B0BDE8C3
:10154000F083ECB9806B23461FFA82FC0124371D1F
:1015500004FA03F212EA0C0F014604D051F8042BEE
:1015600047F8232008460133102BF1D115F400551C
:10157000E3D1B063284604E008EB0503102B03D940
:10158000022043B0BDE8F083B8F10F0FF8D83368FC
:10159000DA0706D5304623F0030340F8483B00F055
:1015A00079F820AF384600F075F8B36B002D97D16D
:1015B0001D460435B563384600F068F8BDE720A83D
:1015C00000F06CF8B3E7B9F1100F40D9A9F1100998
:1015D0003368D90708D523F00103304643F00203EE
:1015E00040F8483B00F05EF8B9F1000F32D03368A4
:1015F0005A0720D4B8F10F0F25D96F463846C8F1E5
:10160000100500F057F8002DB36B7FF77AAF20AFCD
:1016100068E723F01003336006F5E87000F09CF8EB
:10162000FEE623F00803036000F5A87000F068F8F8
:1016300025E720AFBDE7304623F0040340F8D03B58
:1016400000F038F8D6E720A800F02CF8D5E74FF0E6
:101650000009BDE7B8F10F0F3FF63FAF20AF3846A6
:1016600000F020F8B36B002D7FF43AAF384600F05D
:1016700015F862E700F1340191E838009C46A6466F
:101680004CF8045D90E8FF0FE54600BD90EC210B9F
:10169000704700BF80EC210B704700BF90EC200B1F
:1016A000704700BF80EC200B704700BFD0EC200BD0
:1016B000704700BFC0EC200B704700BFF0EC020188
:1016C000F0EC0211F0EC0221F0EC0231F0EC0241FE
:1016D000F0EC0251F0EC0261F0EC0271F0EC0281EE
:1016E000F0EC0291F0EC02A1F0EC02B1F0EC02C1DE
:1016F000F0EC02D1F0EC02E1F0EC02F1704700BF37
:10170000E0EC0201E0EC0211E0EC0221E0EC02313D
:10171000E0EC0241E0EC0251E0EC0261E0EC02712D
:10172000E0EC0281E0EC0291E0EC02A1E0EC02B11D
:10173000E0EC02C1E0EC02D1E0EC02E1E0EC02F10D
:10174000704700BFB0FC0181B0FC0191B0FC01A169
:10175000B0FC01B1704700BFA0FC0181A0FC019169
:10176000A0FC01A1A0FC01B1704700BFEC4600B590
:101770002DE900502DE9FF1F4FF000032DE90C006B
:1017800001A9FFF7E1FBDDF840E012B0704700BFB0
:10179000EC4600B52DE900502DE9FF1F4FF0000386
:1017A0002DE90C0001A9FFF70BFCDDF840E012B0B9
:1017B000704700BFEC4600B52DE900502DE9FF1F32
:1017C0004FF000032DE90C0001A9FFF71BFCDDF829
:1017D00040E012B0704700BFEC4600B52DE9005064
:1017E0002DE9FF1F4FF000032DE90C0001ABFFF7BF
:1017F000DFFBDDF840E012B0704700BFEC4600B5FB
:101800002DE900502DE9FF1F4FF000032DE90C00DA
:1018100001AAFFF751FCDDF840E012B0704700BFAD
:10182000027A03467AB9427AA2B14168013A10B409
:101830004272086803220C1D1A7202025C60000EDC
:1018400010BC1A6070470068013A1A7202021A60EE
:10185000000E7047B020704700B585B0002303AA82
:10186000009219460C22FFF7DDFB039805B05DF8E6
:1018700004FB00BFF0E700BF2DE9F043054685B04B
:101880000E464FF000083046FFF7CAFFB028044666
:1018900000F0BA80070620D500F0F003802B4DD071
:1018A000902B36D0A02B60D0B02B74D0C02B00F082
:1018B0008B8000F0F803D02B0BD100F0070201322F
:1018C000052342F4002201212846FFF791FD00285C
:1018D000D9D0092005B0BDE8F0838300DBB21F1D1D
:1018E0000DF10C0900231946CDF800900D22284671
:1018F000FFF798FB039BCDF8009060064CBFDF1B01
:10190000FF1800230D22194628460397FFF7B0FB66
:10191000B9E700F00D030D2BDBD003AF002300F07F
:101920000F02194600972846FFF77CFB002300971B
:101930000D2219462846FFF79BFBA4E73046FFF728
:101940006FFF24022043B0F5004FC2D004010023F2
:10195000A2B219462846FFF74BFD0028B9D114F46E
:10196000004F18BF4FF001088DE7C24302F0070394
:101970004FF47F621A41010702F47F624FF00003C7
:1019800048BF42F4804219462846FFF731FD00283F
:101990003FF479AF9DE7B1283BD0B22800F09380A7
:1019A000B32841D000F0FC03B42B92D000F0070222
:1019B0000132012342F4002219462846FFF718FDA0
:1019C00000283FF460AF84E7C6284AD0C72854D027
:1019D00000F0F803C02B63D0C82868D0C9287FF472
:1019E00078AF3046FFF71CFF020300F00F0002F44F
:1019F000702201300243012105232846FFF7F8FC3D
:101A000000283FF440AF64E7B8F1000F18D0002081
:101A100060E73046FFF704FF024600283FF459AF65
:101A200010F0F003C8D054E73046FFF7F9FE020388
:101A300000F00F03013302F470221A430123BBE7C5
:101A400003AC43460E22414600942846FFF7EAFACB
:101A5000009443460F2241462846FFF709FB4046C3
:101A600038E73046FFF7DCFE020300F00F030133D6
:101A700002F470221A4303239EE73046FFF7D0FE9C
:101A8000024600283FF425AF10F0F0037FF421AFA9
:101A900004212846FFF7ACFC00283FF4F4AE18E719
:101AA00000F00F020132032342F4202284E7304683
:101AB000FFF7B6FE00F0F00200F00F031032013322
:101AC00043EA023297E700230DF10C090D22194673
:101AD000CDF800902846FFF7A5FA3046FFF7A0FEA4
:101AE00002064FF002040CD5039B00F07F00A040DB
:101AF000184403903046FFF793FE030604F10704F1
:101B0000F2D4039BCDF8009000F07F02A24003F5D1
:101B100001731A440023039219460D222846FFF749
:101B2000A7FAB0E610B5C26C536884B04FF0030C4E
:101B300008321C0208461B0E01A9019402928DF87E
:101B40000CC08DF80D30FFF797FE04B010BD00BF3C
:101B500008B5FFF78FFE806C08BD00BF08B5FFF722
:101B600089FEC06CC379023300EB830008BD00BF5F
:101B7000704700BF844641EA000313F003036DD1B0
:101B8000403A41D351F8043B40F8043B51F8043B40
:101B900040F8043B51F8043B40F8043B51F8043B47
:101BA00040F8043B51F8043B40F8043B51F8043B37
:101BB00040F8043B51F8043B40F8043B51F8043B27
:101BC00040F8043B51F8043B40F8043B51F8043B17
:101BD00040F8043B51F8043B40F8043B51F8043B07
:101BE00040F8043B51F8043B40F8043B51F8043BF7
:101BF00040F8043B51F8043B40F8043B51F8043BE7
:101C000040F8043B403ABDD2303211D351F8043B86
:101C100040F8043B51F8043B40F8043B51F8043BC6
:101C200040F8043B51F8043B40F8043B103AEDD235
:101C30000C3205D351F8043B40F8043B043AF9D286
:101C4000043208D0D2071CBF11F8013B00F8013B59
:101C500001D30B8803806046704700BF082A13D366
:101C60008B078DD010F003038AD0C3F10403D21A7E
:101C7000DB071CBF11F8013B00F8013B80D331F8B2
:101C8000023B20F8023B7BE7043AD9D3013A11F832
:101C9000013B00F8013BF9D20B7803704B7843709D
:101CA0008B7883706046704701F0030101EB81017E
:101CB000490020310844704710B582B0BDF910C00A
:101CC0004FF40074046000248460C460082404613C
:101CD00041FA04F40476417611128176C2761A1222
:101CE000027743779DF91130837780F81FC001ABED
:101CF00000F118020146024800F0C2FB02B010BD1C
:101D0000F867002000B58BB001AB03AA002100F0FA
:101D100035FC039BA3F20122032A02D90BB05DF824
:101D200004FB013BDBB2064A137003EB830358004C
:101D3000203001A9034B184407F060FFEEE700BF15
:101D4000A80400206004002000B583B0064B019376
:101D50000623009300234FF480720449044805F0E1
:101D600027F803B05DF804FBAC04002024B700089A
:101D7000751D000800B5ADF50D7D40F2651005F04C
:101D80001FFA4FF40C720021684609F0A9FB104BB2
:101D90000093104B8B93684607F08EFB684607F064
:101DA000F5FB684607F01CFC684607F02BFB68460D
:101DB00007F064FD684607F03FFE684607F0C0FE86
:101DC000684607F0D5FE684607F0D3FEE6E700BF99
:101DD000C07900206004002010B504460E4B18782E
:101DE0004FF47A73B3FBF0F30C4A1068B0FBF3F0D6
:101DF00000F004FE68B90F2C01D901200AE000228E
:101E000021464FF0FF3000F0B3FD054B1C60002071
:101E100000E0012010BD00BF000000200C000020E9
:101E20000400002008B50B4B1A6842F400721A60D7
:101E30001A6842F480621A601A6842F480721A606A
:101E4000032000F083FD0F20FFF7C6FF06F0E4FB40
:101E5000002008BD003C0240034A1168034B1B7878
:101E60000B441360704700BFB00400200000002046
:101E7000014B1868704700BFB00400204A4B5A68F5
:101E800022F440325A605A6841680A435A60026834
:101E9000536823F48073536002685368016943EA0E
:101EA000012353600268536823F040735360026853
:101EB000536881680B4353600268936823F400639E
:101EC000936002689368C1680B439360826A374BE2
:101ED0009A4257D00268936823F070639360026857
:101EE0009368816A0B4393600268936823F04053C0
:101EF000936002689368C16A0B43936002689368B9
:101F000023F00203936002689368017E43EA410371
:101F1000936090F82030002B3FD00268536843F460
:101F2000006353600268536823F4604353600168A0
:101F30004B68426A013A43EA42334B600268D36A13
:101F400023F47003D3620168CB6AC269013A43EAA1
:101F50000253CB620268936823F4007393600268B3
:101F6000936890F8301043EA4123936002689368C5
:101F700023F48063936002689368416943EA812394
:101F8000936070470268936823F0706393600268FF
:101F9000936823F040539360B0E70268536823F4DA
:101FA00000635360CAE700BF002301400100000F37
:101FB00038B310B50446036C43B1236C13F0100F13
:101FC0000BD00120002384F83C3010BD05F038FD13
:101FD0000023636484F83C30EFE7236C23F48853D8
:101FE00023F0020343F0020323642046FFF746FF79
:101FF00000206064236C23F0030343F00103236497
:10200000E0E701207047000030B482B00023019364
:1020100090F83C30012B00F0BB80012380F83C306D
:102020000B68092B41D90468E2689BB203EB4303B8
:102030001E3B4FF0070C0CFA03F322EA0303E360A4
:102040000468E2680B8803EB43031E3B8D6805FAC6
:1020500003F31343E3604B68062B3DD80468626BBF
:1020600003EB8303053B4FF01F0C0CFA03F322EA4A
:10207000030363630468626B4B6803EB8303053BF4
:10208000B1F800C00CFA03F3134363630268414BD9
:102090009A4251D002683F4B9A4256D0002380F8B2
:1020A0003C30184602B030BC7047046822699BB2CD
:1020B00003EB43034FF0070C0CFA03F322EA03038C
:1020C0002361046822690B8803EB43038D6805FADA
:1020D00003F313432361BEE70C2B16D805682A6B64
:1020E00003EB8303233B1F2404FA03F322EA0303D5
:1020F0002B6305682A6B4B6803EB8303233B0C8837
:1021000004FA03F313432B63C0E70568EA6A03EBA1
:102110008303413B1F2404FA03F322EA0303EB6227
:102120000568EA6A4B6803EB8303413B0C8804FAB9
:1021300003F31343EB62A9E70B68122BAAD1164AEB
:10214000536843F480035360A4E70B68103B012BF2
:10215000A4D8114A536843F4000353600B68102B52
:102160009CD10E4B1B6802F1467202F52E3202F230
:102170008332A2FB03239B0C03EB83035B000193DD
:1021800002E0019B013B0193019B002BF9D185E704
:10219000022087E700200140002301400C000020BE
:1021A000002800F0A18038B5044690F82030D3B163
:1021B0002268136823F002031360FFF759FE0546F7
:1021C00023685A6812F0020F10D0FFF751FE401B2F
:1021D0000A28F5D9636A43F400336362052384F85F
:1021E0002030012038BD05F0B3FCE1E71A6842F069
:1021F00001021A60FFF73CFE054623685A6812F098
:10220000010F0DD1FFF734FE401B0A28F5D9636A90
:1022100043F400336362052384F820300120E1E7B2
:10222000227E012A3DD01A6822F080021A60637E65
:10223000012B3BD02268136823F040031360A37E78
:10224000012B39D02268136823F020031360E37E4A
:10225000012B37D02268136843F010031360237FEB
:10226000012B35D02268136823F008031360637FC5
:10227000012B33D02268136823F004031360A36892
:10228000E268134322691343626913436268013AA7
:1022900021681343CB6100206062012384F8203061
:1022A000A0E71A6842F080021A60C0E7226813684B
:1022B00043F040031360C2E72268136843F0200331
:1022C0001360C4E72268136823F010031360C6E7A5
:1022D0002268136843F008031360C8E72268136894
:1022E00043F004031360CAE70120704790F82030E0
:1022F000013BDBB2012B05D9436A43F480234362DF
:102300000120704730B5464BD3F8002242F001025D
:10231000C3F80022D3F8002222F47C52C3F8002232
:10232000D3F80022486A42EA0022C3F800224A6930
:1023300002F01F02012000FA02F2D3F81C026FEA39
:10234000020C20EA0200C3F81C02CB69C3B9344B6B
:10235000D3F80C020CEA0000C3F80C028C88486920
:10236000CD6844EA0544483043F830408C6808881A
:1023700040EA04404C6904F1480E03EBCE03586078
:10238000CB69012B1ED08B69002B33D12448D0F8A8
:1023900004320CEA0303C0F804320B698BBB2048FB
:1023A000D0F814320CEA0303C0F814320B6A012B84
:1023B0002ED01B4AD2F8003223F00103C2F80032BB
:1023C000002030BD164BD3F80C021043C3F80C02AA
:1023D0008C8848690D6844EA0544483043F8304029
:1023E00088894C698D6840EA0540483403EBC40392
:1023F0005860C8E70A48D0F804321343C0F80432E2
:10240000CBE70748D0F814321343C0F81432CDE7B5
:102410000349D1F81C321A43C1F81C22C9E700BF96
:102420000064004070B5044690F82050EDB2012DD4
:1024300006D0436A43F4002343620125284670BD59
:10244000022380F820300268136823F00103136030
:10245000FFF70EFD064623685B6813F0010F0CD0F2
:10246000FFF706FD831B0A2BF5D9636A43F400339B
:102470006362052384F82030E0E700256562DDE72C
:1024800030B590F820C00468A4680CF1FF3C5FFAF6
:102490008CFCBCF1010F6BD814F0E05F62D0C4F388
:1024A000016CBCF1020F05D9436A43F40003436297
:1024B000012062E0012404FA0CF41C608B68002BFC
:1024C0003DD10D68CB68046843EA45550CF118030B
:1024D0001B01E55003680C690CF1180E03EB0E1399
:1024E0005C600B7D012B35D0D17993791B0443EAD5
:1024F0000163517943EA012314790168234301EB15
:102500000C11C1F88C31D17893781B0443EA016334
:10251000517843EA0123117802680B4302EB0C1255
:10252000C2F8883102680CF1180C4FEA0C1C52F802
:102530000C3043F0010342F80C3000201DE04C68E1
:1025400043EAC403CC6823430CF118042401056852
:102550002B51BFE7036803EB0E13596841F48071F8
:102560005960C1E7436A43F400134362012004E069
:10257000436A43F480234362012030BD90F820C0B9
:102580000CF1FF3C5FFA8CFCBCF1010F00F295806E
:1025900030B451B90468E46814F0030F10D1436AF1
:1025A00043F400134362012077E00468246914F0C7
:1025B000030F05D1436A43F40013436201206CE02A
:1025C00001F11B04240105682C5904F004049460F3
:1025D000002C64D101F11B04240105682C59640D01
:1025E0001460046801F11B0C4FEA0C1C54F80C40F9
:1025F000C4F34004D46004686444646804F00F04C5
:102600001461046864446468C4F307249461046832
:1026100064446468240C5461026802EB0112D2F82D
:10262000B8211A70026802EB0112D2F8B821C2F385
:1026300007225A70026802EB0112D2F8B821C2F3E5
:1026400007429A70026802EB0112D2F8B821120E0A
:10265000DA70026802EB0112D2F8BC211A7102682A
:1026600002EB0112D2F8BC21C2F307225A710268B0
:1026700002EB0112D2F8BC21C2F307429A71026840
:1026800002EB0112D2F8BC21120EDA7179B902689C
:10269000D36843F02003D360002030BC704701F1C1
:1026A0001B04240105682C59E408546099E702686A
:1026B000136943F020031361EEE7436A43F4802378
:1026C00043620120704790F82030013BDBB2012BC0
:1026D00005D9436A43F480234362012070470268AE
:1026E0005369194351610020704770477047704724
:1026F0007047704770477047704770477047704722
:1027000070472DE9F84F054603685C69D3F80480EB
:102710009F68D3F80CB0D3F810A0D3F8189014F039
:1027200001063BD017F0010616D001229A6017F07F
:10273000020F08D117F0040F0CD117F0080606D0CD
:102740004FF4805608E0FFF7D0FF002604E0FFF7C3
:10275000CFFF01E04FF4006617F4807F0DD02B68A7
:102760004FF480729A6017F4007F40F0868017F46F
:10277000806F00F0868046F4005617F4803F0DD03D
:102780002B684FF480329A6017F4003F40F083804A
:1027900017F4802F00F0838046F4004614F0080FF1
:1027A00007D01BF0100F04D046F400762B681022DF
:1027B000DA6014F0040F02D01BF0080F79D114F086
:1027C000020F04D02B68DB6813F0030F78D114F0EC
:1027D000400F07D01AF0100F04D046F480662B6823
:1027E00010221A6114F0200F02D01AF0080F6BD1DA
:1027F00014F0100F04D02B681B6913F0030F6AD17B
:1028000014F4003F02D018F0100F68D114F4803F88
:1028100002D018F0080F69D114F4004F7AD018F0E4
:10282000040F74D014F4807F04D019F0010F01D08C
:1028300046F0010614F4007F04D019F0020F01D015
:1028400046F0020614F4806F04D019F0040F01D092
:1028500046F0040614F4006F59D019F0700956D0F0
:10286000B9F1400F65D058D8B9F1200F5ED0B9F159
:10287000300F42D146F0200644E02846FFF736FFED
:102880007BE717F4006F02D046F4804675E72846D0
:10289000FFF72FFF71E72846FFF729FF7EE717F4C0
:1028A000002F02D046F4803678E72846FFF722FF53
:1028B00074E72B680822DA602846FFF71CFF7EE7E2
:1028C0002846FFF71FFA82E72B6808221A6128467C
:1028D000FFF713FF8CE72846FFF70EFF90E72B6802
:1028E00010225A602846FFF709FF8FE72B6808225D
:1028F0005A602846FFF703FF8EE7B9F1100F01D1A8
:1029000046F008062A68936923F0700393612B68E8
:1029100004225A609EB9BDE8F88FB9F1500F0BD070
:10292000B9F1600FEED146F48076EBE746F0100681
:10293000E8E746F04006E5E746F08006E2E76B6A26
:102940001E436E622846FFF7DBFEE4E7074AD368C2
:1029500023F4E0631B041B0C000200F4E06003435B
:1029600043F0BF6343F40033D360704700ED00E0F1
:1029700000B5194BDB68C3F30223C3F1070CBCF1AC
:10298000040F28BF4FF0040C03F1040EBEF1060F34
:1029900018D9033B4FF0FF3E0EFA0CFC21EA0C0164
:1029A00099400EFA03F322EA0303194300280BDBD4
:1029B0000901C9B200F1604000F5614080F80013E0
:1029C0005DF804FB0023E5E700F00F000901C9B240
:1029D000024B1954F4E700BF00ED00E014ED00E0F5
:1029E000002807DB00F01F02400901239340024A40
:1029F00042F82030704700BF00E100E00138B0F13C
:102A0000807F0BD24FF0E0235861054AF02182F815
:102A100023100020986107221A6170470120704737
:102A200000ED00E068B110B5044643792BB10223F4
:102A3000637101236371002010BD037105F028F953
:102A4000F5E701207047000010B40368D9B21039CF
:102A50000C4AA2FB014212090B4CA25CC2655F2921
:102A600009D923F47F7323F0030304338365806D56
:102A70005DF8044B704723F47F7323F003038365F1
:102A8000F5E700BFABAAAAAA34B70008836A826937
:102A900092B9012B0AD0022B02D00BB10020704753
:102AA000C36A13F0807F28D100207047C36AB3F156
:102AB000C07F24D000207047B2F5005F09D0022B00
:102AC00025D9032B25D1C36A13F0807F23D10020A1
:102AD0007047032B03D8DFE803F01404140A002026
:102AE0007047C36A13F0807F0DD100207047C36A1E
:102AF000B3F1C07F09D0002070470120704701204A
:102B00007047012070470120704701207047012065
:102B100070470020704701207047000070B50446E0
:102B2000FFF7A6F9002C5BD00546002384F834306B
:102B3000022384F835302268136823F00103136000
:102B400023681A6812F0010F0AD0FFF791F9431BAE
:102B5000052BF5D920236365032084F8350070BD6B
:102B60001A68204810406168A2680A43E1680A4375
:102B700021690A4361690A43A1690A43E1690A4379
:102B8000216A0A430243616A04291ED01A6026683A
:102B9000756925F00705636A1D43042B07D1A36AF5
:102BA0001D43E36A1BB12046FFF770FF90B97561C2
:102BB0002046FFF749FFE26D3F23934083600020EA
:102BC0006065012384F83530C9E7E16A206B014371
:102BD0000A43DBE740236365012084F83500BEE744
:102BE0000120BCE73F8010F0F0B583B0044600231D
:102BF0000193724B1D68724BA3FB0535AD0A876DBF
:102C00003E68C26D08239340334210D003681A68AF
:102C100012F0040F0BD01A6822F004021A60C26D81
:102C200008239340BB60436D43F001034365E26DAD
:102C300001239340334209D02268526912F0800F79
:102C400004D0BB60636D43F002036365E26D04234F
:102C50009340334209D02268126812F0020F04D068
:102C6000BB60636D43F004036365E26D1023934022
:102C7000334224D02268126812F0080F1FD0BB60C4
:102C800023681A6812F4802F0DD01B6813F4002FEC
:102C900004D1236C9BB12046984710E0A36C73B11C
:102CA000204698470BE01A6812F4807F03D11A6817
:102CB00022F008021A60236C0BB120469847E26D9F
:102CC00020239340334255D02268126812F0100F2F
:102CD00050D0BB6094F83530DBB2052B0ED02368A2
:102CE0001A6812F4802F33D01B6813F4002F2AD1F6
:102CF000636C002B3ED0204698473BE02268136867
:102D000023F0160313602268536923F08003536194
:102D1000236CA3B12268136823F008031360E26DEB
:102D20003F239340BB60002384F83430012384F8B0
:102D30003530236D002B3FD0204698473CE0A36CF4
:102D4000002BE7D1EBE7E36BA3B12046984711E0F6
:102D50001A6812F4807F09D11A6822F010021A60F2
:102D6000002384F83430012384F83530E36B0BB151
:102D700020469847636DFBB1636D13F0010F17D0C8
:102D8000052384F835302268136823F001031360AB
:102D9000019B01330193AB4204D823681B6813F0F5
:102DA000010FF5D1002384F83430012384F8353045
:102DB000E36C0BB12046984703B0F0BD0C00002037
:102DC000B5814E1B00230F2B00F2D880F0B583B0E5
:102DD0003AE0072200E00022AA4032430234684D64
:102DE00045F82420674A14686FEA0C0224EA0C05AF
:102DF0004E6816F4803F01D04CEA0405614C256012
:102E0000646802EA04054E6816F4003F01D04CEAFB
:102E100004055C4C6560A46802EA04054E6816F47B
:102E2000801F01D04CEA0405564CA560E46822409E
:102E30004D6815F4001F01D04CEA0402514CE260C9
:102E400001330F2B00F2988001229A400C6804EAAB
:102E5000020C32EA0404F3D14C68022C01D0122C8B
:102E600010D1DD08083550F8257003F00704A600DE
:102E70000F24B44027EA040E0C69B44044EA0E045F
:102E800040F8254006684FEA430E032404FA0EF486
:102E9000E54326EA04064C6804F0030404FA0EF441
:102EA000344304604C68661E012E03D9112C01D0F6
:102EB000122C0FD186682E40CC6804FA0EF43443ED
:102EC0008460446824EA02024C68C4F300149C4005
:102ED00014434460C26815408A6802FA0EF22A431D
:102EE000C2604A6812F0805FAAD000220192264A8E
:102EF000546C44F480445464526C02F48042019255
:102F0000019A9C08A51C1E4A52F8256003F0030292
:102F100095000F22AA4026EA02061C4A90423FF47E
:102F20005AAF02F5806290421AD002F58062904258
:102F300018D002F58062904216D002F5806290426D
:102F400014D002F58062904212D002F58062904265
:102F500010D002F5806290423FF43BAF08223BE77D
:102F6000012239E7022237E7032235E7042233E75B
:102F7000052231E706222FE703B0F0BD704700BFFE
:102F800000380140003C014000380240000002408F
:102F90000AB1816170470904816170477047000080
:102FA00008B5054B5B69034200D108BD024B58616F
:102FB000FFF7F4FFF9E700BF003C0140002800F0F4
:102FC000C28070B5044690F83D30002B6DD02423AC
:102FD00084F83D302268136823F00103136001F088
:102FE0001FF862685A4B9A4264D85A4B98428CBF79
:102FF00000230123002B40F0A8805749A1FB00319A
:103000008B0C25686A6822F03F0242EA91426A60AE
:1030100021680A6A22F03F0266684D4DAE424FD8E1
:10302000013313430B622168CA6922F44F4222F034
:10303000FF026668464B9E424CD8431E7600B3FBA7
:10304000F6F3013340F6FC70034278D0C3F30B0370
:103050001343CB6121680B6823F0C003E269206A47
:10306000024313430B6021688B6823F4034323F06E
:10307000FF032269E068024313438B602168CB6839
:1030800023F0FF036269A06902431343CB60226807
:10309000136843F00103136000202064202384F8A8
:1030A0003D30206384F83E0070BD80F83C3004F071
:1030B000EFFF8CE7294B98428CBF0023012399E74F
:1030C0004FF4967505FB03F3254DA5FB03539B09B0
:1030D0000133A6E7A368BBB9451E06EB460CB5FB5A
:1030E000FCF50135C5F30B05B5FA85F56D0945BB52
:1030F000C3B9013806EB4603B0FBF3F30133C3F366
:103100000B0343F40043A3E7451E06EB860C0CEBD0
:103110008C0CB5FBFCF50135C5F30B05B5FA85F54F
:103120006D09E4E7013806EB860303EB8303B0FB8C
:10313000F3F30133C3F30B0343F4404388E7042361
:1031400086E7012384E7012070470120ACE700BF38
:10315000A08601007F841E0083DE1B43FF083D0024
:10316000D34D62102DE9F04383B0D0F80080C1EB5D
:10317000C10300EB83035A6D1B6D9A4254D8074676
:103180000C469B1AC1EBC10200EB8202526C9A42C0
:1031900000D31A4602F103094FEA990915E006F136
:1031A00003094FEA9909C4EBC40507EB8505A96C2F
:1031B0003B7C0093B3B2E2B2404601F0EEFEAB6C52
:1031C0003344AB646B6D33446B6508EB441303F518
:1031D00010639B699BB24B4512D3C4EBC40207EB4F
:1031E0008202516D136D99420AD24BB15B1AC4EB46
:1031F000C40207EB8202566C9E42D0D31E46CEE735
:10320000C4EBC40007EB80073A6D7B6D9A420FD880
:1032100004F00F040123A340D8F8344824EA03043F
:10322000C8F83448002000E0012003B0BDE8F08376
:103230000020FAE770B505460E460368196C03EBEB
:10324000461303F53064A3680269012A09D0344AA1
:1032500091425FD113F4004F52D04FF40043A3606A
:103260005BE013F0080F14D02E4A914205D913F4F5
:10327000004F02D04FF40043A360284605F0CEFF74
:1032800005F571720121286802F086F80823A36011
:1032900043E013F0200F02D02023A3603DE013F0A1
:1032A000280F3AD11F4A914206D913F4004F03D098
:1032B0004FF40043A36030E0C6EBC60305EB830385
:1032C000D3F804122269C2F312028A1AC3F8142234
:1032D000D3F808220A44C3F80822F1B2284605F0C0
:1032E000A5FFD6B9C6EBC60605EB8603D3F81032A8
:1032F0009BB905F571720121286802F04DF80CE0C8
:1033000013F0200F01D02023A360F1B2284605F06E
:103310008DFF02E0F1B205F089FF002070BD00BF13
:103320000A31544F0A30544F38B5044603681D6CB7
:1033300003EB411303F5306399680269012A0DD04C
:10334000124A954214D0204605F068FF104B9D426A
:1033500002D92369012B12D0002038BD0C4A9542B6
:10336000F1D911F4004FEED04FF400429A60EAE731
:1033700011F4004FE7D04FF400429A60E3E704F500
:1033800071720121206802F007F8E5E70A31544F15
:103390000A30544F2DE9F04704460568284601F0ED
:1033A000DAFF08B1BDE8F0870646206801F0A2FF09
:1033B0000028F7D0206801F09DFF10F0020F04D024
:1033C0002268536903F002035361206801F092FF01
:1033D00010F4002F74D1206801F08CFF10F4802FBE
:1033E00040F0C080206801F085FF0028C0F22E81E7
:1033F000206801F07FFF10F4006F0AD0D5F808387C
:1034000013F0010F40F03C812268536903F400631C
:103410005361206801F06EFF10F4805F40F034814A
:10342000206801F067FF10F4005F40F07D812068A4
:1034300001F060FF10F0100F14D02268936923F0A0
:10344000100393612E6A06F00F07C6F34343022B65
:1034500000F08281062B00F09E812268936943F080
:1034600010039361206801F045FF10F0080F40F051
:10347000A481206801F03EFF10F4801F40F0A68177
:10348000206801F037FF10F4001F40F0A981206888
:1034900001F030FF10F0804F40F0AC81206801F067
:1034A00029FF10F0040F3FF47DAF23685D6815F02D
:1034B000040F40F0A881226853682B43536071E7E2
:1034C000206801F01BFF0746B04624E005EB4813D7
:1034D0000122C3F8082B41462046FFF7ABFE29E046
:1034E00041462046FFF720FF05EB48130822C3F8AA
:1034F000082B22E005EB48132022C3F8082B19F40F
:10350000005F05D005EB48134FF40052C3F8082BB9
:1035100008F101087F08002F3FF45DAF17F0010F9D
:10352000F6D05FFA88F1206801F0F8FE814610F0CD
:10353000010FCBD119F0080FD2D119F0100F04D020
:1035400005EB48131022C3F8082B19F0200FD6D032
:103550002369012BCED104F571720121206801F09D
:103560001BFFC7E7206801F0D1FE0746B0462EE0FA
:10357000C8EBC80304EB8303596C9A6C0A449A6441
:1035800047E019F0080F04D005EB48130822C3F8F0
:10359000082919F0100F04D005EB48131022C3F8C6
:1035A000082919F0400F04D005EB48134022C3F856
:1035B000082919F0020F04D005EB48130222C3F8C2
:1035C000082919F0800F3CD108F101087F08002F6D
:1035D0003FF408AF17F0010FF6D05FFA88FA5146B2
:1035E000206801F0A4FE814610F0010FC9D008F058
:1035F0000F03012101FA03F2D5F8343823EA02035C
:10360000C5F8343805EB4813C3F8081923698B4211
:10361000AED05146204605F015FE2369012BB0D1EE
:10362000B8F1000FADD1C8EBC80304EB83031B6DE9
:10363000002BA6D104F571720121206801F0ACFEC7
:103640009FE741462046FFF78DFDBDE7D5F80438DA
:1036500023F00103C5F8043894F8F433012B08D0A3
:10366000204605F02FFE2268536903F000435361A2
:10367000BEE6002184F8F413204600F0FEF9F2E7DC
:10368000204605F007FEBFE605F500677B6823F0DE
:1036900001037B601021206801F07CFB14E005EB46
:1036A00046134FF67F31C3F80819D3F8002922F4E6
:1036B0000012C3F80029C3F8081BD3F8002B22F42A
:1036C0000012C3F8002B01366368B342E7D8FB69E8
:1036D00043F00113FB61236BDBB1D7F8843043F077
:1036E0000B03C7F884307B6C43F00B037B64D5F885
:1036F000003823F4FE63C5F8003804F57172217CAC
:10370000206801F049FE2268536903F48053536135
:1037100086E67B6943F4005343F02B037B613B69EE
:1037200043F00B033B61E2E7206801F018FE2068DC
:1037300001F044FBE060266800F06CFC0146227B4F
:10374000304601F0B5FA204605F08DFD2268536938
:1037500003F4005353616AE647F6F0731E423FF4E8
:103760007CAE4FEA161AC7EBC70804EB8808C6F30D
:103770000A12D8F80812284601F042FDCAF30A02DC
:10378000D8F808321344C8F80832D8F814321A446A
:10379000C8F8142261E6082204F57171284601F088
:1037A0002FFDC6F30A16C7EBC70204EB8202D2F85C
:1037B00014321E44C2F814624FE6204605F04DFD57
:1037C0002268536903F00803536152E60021204642
:1037D00005F084FD2268536903F4801353614FE6BA
:1037E0000021204605F074FD2268536903F400139C
:1037F00053614CE6204605F077FD2268536903F0DB
:10380000804353614AE6204605F074FD53E690F884
:10381000BC33012B0DD010B50446012380F8BC3316
:1038200080F83810006801F055FD002084F8BC03D2
:1038300010BD0220704738B505468C4611F0800F48
:1038400029D101F00F0ECEEBCE04A40004F5FC74D8
:103850000444211DCEEBCE0E00EB8E0E00208EF820
:10386000FD010CF00F0C81F800C08A60CB704A7823
:103870000AB1A1F806C0022B1DD095F8BC33012B6C
:103880001CD0012385F8BC33286801F0A8FA002079
:1038900085F8BC0338BD01F00F00C0EBC001890002
:1038A000383129440431C0EBC00005EB800001240D
:1038B00080F83D40D5E700230B71DEE70220E9E701
:1038C00010B501F00F04C4EBC401890001F5FC71CF
:1038D00001440431C4EBC40C00EB8C0CCCF808227E
:1038E000CCF810320023CCF814328CF8FD318CF86F
:1038F000FC410369012B06D064B9DAB2006801F01B
:10390000BCFA002010BDC4EBC40C00EB8C0CCCF84E
:103910000C22F1E7DAB2006801F056FBF1E710B5CE
:1039200001F00F04C4EBC4018900383101440431B3
:10393000C4EBC40C00EB8C0CCCF84820CCF8503015
:103940000023CCF8543001238CF83D308CF83C40F7
:103950000369012B06D064B9DAB2006801F08DFA70
:10396000002010BDC4EBC40C00EB8C0CCCF84C2038
:10397000F1E7DAB2006801F027FBF1E738B501F0B2
:103980000F054268954239D804460B4611F0800F66
:103990001FD1C1EBC101890001F5FC710144043163
:1039A000C3EBC30300EB8303002283F8FD21012353
:1039B0008B700D7094F8BC33012B21D0012384F857
:1039C000BC33206801F02BFC8DB1002084F8BC03CF
:1039D00038BDC5EBC5018900383101440431C5EB60
:1039E000C50300EB8303012283F83D20DFE704F5E4
:1039F0007172217C206801F0CFFCE6E70120E7E747
:103A00000220E5E701F00F034268934231D810B578
:103A1000044611F0800F1ED1C3EBC301890001F5EC
:103A2000FC7101440431C3EBC30200EB82020020AD
:103A300082F8FD0100228A700B7094F8BC33012BD0
:103A400019D0012384F8BC33206801F015FC002054
:103A500084F8BC0310BDC3EBC301890038310144B5
:103A60000431C3EBC30200EB8202012082F83D0067
:103A7000E0E7012070470220ECE77047002800F0E3
:103A8000BA8170B582B00446036813F0010F3BD0D1
:103A90009F4B9B6803F00C03042B2CD09C4B9B6822
:103AA00003F00C03082B21D06368B3F5803F4FD09F
:103AB000B3F5A02F52D0964B1A6822F480321A60C8
:103AC0001A6822F480221A606368002B50D0FEF737
:103AD000CFF905468E4B1B6813F4003F14D1FEF757
:103AE000C7F9401B6428F5D903208BE1884B5B683C
:103AF00013F4800FD8D0864B1B6813F4003F03D01B
:103B00006368002B00F07981236813F0020F54D012
:103B10007F4B9B6813F00C0F3ED07D4B9B6803F0EE
:103B20000C03082B33D0E368002B68D0794B0122BB
:103B30001A60FEF79DF90546754B1B6813F0020FDE
:103B400054D1FEF795F9401B0228F5D9032059E11D
:103B50006F4A136843F480331360B5E76C4B1A68FF
:103B600042F480221A601A6842F480321A60ABE78D
:103B7000FEF77EF90546664B1B6813F4003FC3D081
:103B8000FEF776F9401B6428F5D903203AE1604B33
:103B90005B6813F4800FC6D15D4B1B6813F0020FF6
:103BA00003D0E368012B40F02A81594A136823F0BF
:103BB000F803216943EAC1031360236813F0080F77
:103BC00042D063696BB3534B0122C3F8802EFEF7DA
:103BD0004FF905464E4B5B6F13F0020F34D1FEF7E1
:103BE00047F9401B0228F5D903200BE1484A136826
:103BF00023F0F803216943EAC1031360DDE7454B75
:103C000000221A60FEF734F90546414B1B6813F099
:103C1000020FD2D0FEF72CF9401B0228F5D9032061
:103C2000F0E03C4B0022C3F8802EFEF721F9054658
:103C3000374B5B6F13F0020F06D0FEF719F9401BEC
:103C40000228F5D90320DDE0236813F0040F77D0B4
:103C50002F4B1B6C13F0805F33D1002301932C4B4F
:103C60001A6C42F080521A641B6C03F0805301936B
:103C7000019B0125284B1B6813F4807F23D0A36888
:103C8000012B34D0052B38D0214B1A6F22F00102C2
:103C90001A671A6F22F004021A67A368002B3DD03E
:103CA000FEF7E6F806461A4B1B6F13F0020F46D1DB
:103CB000FEF7DEF8801B41F288339842F3D90320E7
:103CC000A0E00025D6E7144A136843F4807313601C
:103CD000FEF7CEF80646104B1B6813F4807FCED15A
:103CE000FEF7C6F8801B0228F5D903208AE0084AAF
:103CF000136F43F001031367CFE7054B1A6F42F0D0
:103D000004021A671A6F42F001021A67C5E700BF82
:103D1000003802400000474200700040FEF7A8F85B
:103D200006463A4B1B6F13F0020F08D0FEF7A0F8BF
:103D3000801B41F288339842F3D9032062E0E5B951
:103D4000A369002B5DD0314A926802F00C02082A68
:103D50005AD0022B17D02E4B00221A66FEF788F895
:103D600004462A4B1B6813F0007F42D0FEF780F810
:103D7000001B0228F5D9032044E0244A136C23F0E9
:103D800080531364DCE7224B00221A66FEF770F8BA
:103D900005461E4B1B6813F0007F06D0FEF768F83F
:103DA000401B0228F5D903202CE0E369226A134363
:103DB000626A43EA8213A26A5208013A43EA024362
:103DC000E26A43EA0263114A5360114B01221A6608
:103DD000FEF74EF804460D4B1B6813F0007F06D12A
:103DE000FEF746F8001B0228F5D903200AE0002060
:103DF00008E0002006E001207047012002E00120D9
:103E000000E0002002B070BD0120FBE70038024056
:103E10000000474208B5254B9B6803F00C03042BB8
:103E20003FD0082B3FD1214B5A6802F03F025B681C
:103E300013F4800F12D01D4B5968C1F388111C4830
:103E40000023A1FB0001FCF7A9FD184B5B68C3F33D
:103E5000014301335B00B0FBF3F025E0134B5968DD
:103E6000C1F3881C4FEA4C11B1EB0C006EEB0E0E47
:103E70004FEA8E1343EA90638101091A63EB0E0344
:103E8000DB0043EA5173C90011EB0C0C43F1000352
:103E9000990200234FEA8C2041EA9C51FCF77EFDF9
:103EA000D3E7034800E0034808BD00BF00380240E4
:103EB000001BB7000024F400002800F09A8070B5C1
:103EC0000D4604464F4B1B6803F00F038B4208D28C
:103ED000CBB24C4A1370136803F00F038B4240F0CF
:103EE0008A80236813F0020F17D013F0040F04D058
:103EF000454A936843F4E0539360236813F0080F36
:103F000004D0414A936843F4604393603E4A936807
:103F100023F0F003A1680B439360236813F0010FB3
:103F200032D06368012B21D09A1E012A25D9364A46
:103F3000126812F0020F60D033498A6822F003023F
:103F400013438B60FDF794FF06462F4B9B6803F0ED
:103F50000C036268B3EB820F16D0FDF789FF801B5C
:103F600041F288339842F0D9032041E0264A126892
:103F700012F4003FE0D101203AE0234A126812F027
:103F8000007FD9D1012033E01E4B1B6803F00F03E3
:103F9000AB4207D9EAB21B4B1A701B6803F00F0340
:103FA000AB422CD1236813F0040F06D0164A936855
:103FB00023F4E053E1680B439360236813F0080F88
:103FC00007D0114A936823F46043216943EAC1038F
:103FD0009360FFF71FFF0C4B9B68C3F303130B4A5F
:103FE000D35CD8400A4B18600F20FDF7F5FE002087
:103FF00070BD012070470120FAE70120F8E7012099
:10400000F6E700BF003C0240003802405CB7000801
:104010000C000020014B1868704700BF0C00002006
:1040200008B5FFF7F7FF044B9B68C3F38223034AED
:10403000D35CD84008BD00BF003802406CB7000810
:1040400008B5FFF7E7FF044B9B68C3F34233034A0D
:10405000D35CD84008BD00BF003802406CB70008F0
:1040600030B583B00446036813F0050F06D123680A
:1040700013F0020F2ED1002003B030BD4A4B0022B6
:104080009A66FDF7F5FE0546484B1B6813F0006F76
:1040900006D0FDF7EDFE431B022BF5D90320EBE71D
:1040A0006268A3681B0743EA8213404AC2F884305F
:1040B0003D4B01229A66FDF7DBFE05463B4B1B6834
:1040C00013F0006FD3D1FDF7D3FE431B022BF5D9BC
:1040D0000320D1E700230193344B1A6C42F0805245
:1040E0001A641B6C03F080530193019B304A1368E0
:1040F00043F480731360FDF7BBFE05462C4B1B6831
:1041000013F4807F06D1FDF7B3FE431B022BF5D9D4
:104110000320B1E7254B1B6F13F4407314D0E26802
:1041200002F440729A420FD0204B1A6F22F4407270
:104130001D490120C1F8400E0020C1F8400E1A6749
:104140001B6F13F0010F13D1E36803F44072B2F553
:10415000407F1ED0154A936823F4F81393601349E7
:104160000B6FE268C2F30B0213430B67002083E777
:10417000FDF77EFE05460D4B1B6F13F0020FE3D1DA
:10418000FDF776FE401B41F288339842F3D90320B5
:1041900072E706498A6822F4F81223F0704323F488
:1041A000407313438B60DAE7000047420038024057
:1041B0000070004098B110B5044643795BB102230A
:1041C00063712268136843F0040313600123637171
:1041D0000020A06010BD037104F0D2F8EFE70120C9
:1041E000704738B504460268D36823F0A003D36053
:1041F000FDF73EFE05462368DB6813F0200F07D16C
:10420000FDF736FE401BB0F57A7FF4D9032000E0BD
:10421000002038BD38B50368DA6812F0400F01D0CD
:10422000002038BD04464FF0FF32DA60FDF720FE73
:1042300005462368DB6813F0400F07D1FDF718FE31
:10424000431BB3F57A7FF4D90320EAE70020E8E7BF
:1042500038B500285CD00446437F002B41D00223B0
:1042600063772368CA225A62236853225A6220461F
:10427000FFF7D0FF0546002837D12268936823F462
:10428000E00323F04003936021688A686368206933
:1042900003436069034313438B602368E2681A6138
:1042A00022681369A16843EA014313612268D36855
:1042B00023F08003D36023689B6813F0200F1BD08A
:1042C0002268136C23F4802313642268136CA169A1
:1042D0000B4313642368FF225A6201236377284645
:1042E00038BD037704F07EF8B9E72368FF225A62ED
:1042F000042363770125F2E72046FFF772FF0028C9
:10430000DED02368FF225A62042363770125E6E7A3
:104310000125E4E700283BD010B504460023836262
:1043200090F85130002B2ED0022384F851302268AF
:10433000136823F0400313606368A2681343E268C4
:1043400013432269134362691343A26902F40072A2
:104350001343E2691343226A1343A16A22680B43A1
:104360001360638B03F00403616A22680B4353609C
:104370002268D36923F40063D361002060650123C0
:1043800084F8513010BD80F8503004F081F8CBE74C
:104390000120704730B4036A23F001030362036A0B
:1043A0004268846924F073040D682C4323F0020CE6
:1043B0008B6843EA0C03104DA84203D005F58065D5
:1043C000A84205D123F00803CD682B4323F0040352
:1043D000094DA84203D005F58065A84205D122F415
:1043E00040724D692A438D692A43426084614A685C
:1043F0004263036230BC70470000014030B4036A7E
:1044000023F480730362036A4268C46924F0730C66
:104410000C6844EA0C0523F400738C6843EA042317
:10442000114CA04203D004F58064A04206D123F4CD
:104430000063CC6843EA042323F480630A4CA0425F
:1044400003D004F58064A04207D122F440524C69A5
:1044500042EA04128C6942EA04124260C5614A6869
:10446000C263036230BC70470000014030B4036A8D
:1044700023F480530362036A4468C26922F4E6426B
:104480000D6842EA052223F400538D6843EA0533A0
:10449000094DA84203D005F58065A84204D124F453
:1044A00080444D6944EA85144460C2614A680264EC
:1044B000036230BC704700BF0000014010B4036AC3
:1044C000046A24F001040462846924F0F00C4CEACC
:1044D000021223F00A030B43826103625DF8044B6E
:1044E000704710B4046A24F0100404628469036AFB
:1044F00024F4704C4CEA023223F0A00343EA011387
:10450000826103625DF8044B7047836823F0700397
:104510000B4343F007038360704770470368304ADA
:10452000904212D0B0F1804F0FD0A2F57C42904261
:104530000BD002F58062904207D002F58062904273
:1045400003D002F57842904203D123F070034A6809
:104550001343234A90422AD0B0F1804F27D0A2F5CE
:104560007C42904223D002F5806290421FD002F537
:10457000806290421BD002F57842904217D002F53B
:104580007052904213D002F5806290420FD002F533
:10459000806290420BD0A2F59832904207D002F58B
:1045A0008062904203D002F58062904203D123F4EE
:1045B0004073CA68134323F080034A6913430360BE
:1045C0008B68C3620B688362054B984203D003F586
:1045D0008063984201D10B690363012343617047F3
:1045E00000000140B0B110B5044690F83D3063B111
:1045F000022384F83D30214651F8040BFFF78EFF6B
:10460000012384F83D30002010BD80F83C3004F0D8
:10461000B1F8EDE701207047B0B110B5044690F84D
:104620003D3063B1022384F83D30214651F8040B3C
:10463000FFF774FF012384F83D30002010BD80F89F
:104640003C30FFF76AFFEDE70120704730B4036AA2
:1046500023F010030362036A4468826922F4E6428D
:104660000D6842EA052223F020038D6843EA051312
:10467000114DA84203D005F58065A84206D123F06C
:104680008003CD6843EA051323F040030A4DA84296
:1046900003D005F58065A84207D124F440644D6934
:1046A00044EA85048D6944EA8504446082614A686D
:1046B0008263036230BC70470000014038B590F857
:1046C0003C30012B66D004460D46012380F83C3077
:1046D000022380F83D300C2A1AD8DFE802F00719CF
:1046E0001919201919193419191947000068FFF709
:1046F00051FE2268936943F008039361226893692D
:1047000023F0040393612268936929690B43936141
:10471000012384F83D30002084F83C0038BD006857
:10472000FFF794FF2268936943F400639361226862
:10473000936923F48063936122689369296943EA4A
:1047400001239361E4E70068FFF758FE2268D3690C
:1047500043F00803D3612268D36923F00403D361D3
:104760002268D36929690B43D361D1E70068FFF759
:104770007DFE2268D36943F40063D3612268D36964
:1047800023F48063D3612268D369296943EA012352
:10479000D361BDE70220C1E710B4846824F47F4CE4
:1047A00042EA03220A4342EA0C0282605DF8044BAB
:1047B000704790F83C30012B66D010B504460123B9
:1047C00080F83C30022380F83D300268936823F47F
:1047D0007F4323F0770393600B68602B40D022D88F
:1047E000402B47D00BD9502B0ED1CA6849680068BE
:1047F000FFF764FE50212068FFF787FE04E0202BBE
:104800000CD008D9302B09D0012384F83D3000208A
:1048100084F83C0010BD0BB1102BF5D1194620686F
:10482000FFF773FEF0E7702B0ED0B3F5005FEBD10E
:10483000CB684A6889680068FFF7AEFF2268936812
:1048400043F480439360DFE7CB684A688968006877
:10485000FFF7A2FF2268936843F077039360D3E7E2
:10486000CA6849680068FFF73CFE60212068FFF7CE
:104870004CFEC9E7CA6849680068FFF71FFE40217F
:104880002068FFF742FEBFE70220704790F83C30F7
:10489000012B1DD030B54FF0010E80F83CE0022313
:1048A00080F83D3002685468936824F070040D6805
:1048B0002C4323F0800C4B6843EA0C0354600268DD
:1048C000936080F83DE0002380F83C30184630BD0E
:1048D0000220704790F83C30012B22D0012380F851
:1048E0003C30CB6823F440738A68134323F480631D
:1048F0004A68134323F400630A68134323F4805384
:104900000A69134323F400534A69134323F4804391
:10491000CA69134302685364002380F83C30184688
:1049200070470220704700002DE9F84304460268F2
:10493000136923F44053C1680B4313618368026910
:10494000134342691343C2691A430168CB6823F4D5
:10495000164323F00C031343CB600268536923F41E
:10496000407381690B435361C369B3F5004F5ED057
:104970000368B54A934200F0108102F580629342C9
:1049800000F00B81FFF74CFB00EB800000EB800098
:104990006568AD00B0FBF5F5AC4FA7FB05356D09BB
:1049A0002E01FFF73DFB00EB800000EB8000656807
:1049B000AD00B0FBF5F5FFF733FB00EB800000EB3B
:1049C000800063689B00B0FBF3F3A7FB03235B0944
:1049D0004FF0640808FB13531B013233A7FB03237A
:1049E0005B0903F0F003F518FFF71AFB00EB8000FA
:1049F00000EB80006668B600B0FBF6F6FFF710FB30
:104A000000EB800000EB800063689B00B0FBF3F0DC
:104A1000A7FB0030400908FB106000013230A7FB03
:104A20000037C7F3431723682F449F6009E10368E9
:104A3000854A93425AD002F58062934256D0FFF7DE
:104A4000EFFA00EB800000EB800065686D00B0FBC2
:104A5000F5F57E4FA7FB05356D094FEA0519FFF700
:104A6000DFFA00EB800000EB800066687600B0FBA8
:104A7000F6F6FFF7D5FA00EB800000EB80006568E2
:104A80006D00B0FBF5F5A7FB05356D094FF0640827
:104A900008FB1565ED003235A7FB05356D096D0086
:104AA00005F4F8754D44FFF7BBFA00EB800000EB0E
:104AB000800066687600B0FBF6F6FFF7B1FA00EB0F
:104AC000800000EB800063685B00B0FBF3F3A7FBA2
:104AD00003235B0908FB1363DB003233A7FB0337B7
:104AE000C7F3421723682F449F60AAE0FFF7A8FA94
:104AF00000EB800000EB800065686D00B0FBF5F511
:104B0000524FA7FB05356D094FEA0519FFF798FAD3
:104B100000EB800000EB800066687600B0FBF6F6E4
:104B2000FFF78EFA00EB800000EB800065686D00F7
:104B3000B0FBF5F5A7FB05356D094FF0640808FBE0
:104B40001565ED003235A7FB05356D096D0005F4DF
:104B5000F8754D44FFF774FA00EB800000EB80001D
:104B600066687600B0FBF6F6FFF76AFA00EB8000A5
:104B700000EB800063685B00B0FBF3F3A7FB03234B
:104B80005B0908FB1363DB003233A7FB0337C7F372
:104B9000421723682F449F6053E0FFF751FA00EB60
:104BA000800000EB80006568AD00B0FBF5F5274F95
:104BB000A7FB05356D092E01FFF742FA00EB8000D7
:104BC00000EB80006568AD00B0FBF5F5FFF738FA43
:104BD00000EB800000EB800063689B00B0FBF3F308
:104BE000A7FB03235B094FF0640808FB13531B0169
:104BF0003233A7FB03235B0903F0F003F518FFF73B
:104C00001FFA00EB800000EB80006668B600B0FB86
:104C1000F6F6FFF715FA00EB800000EB8000636802
:104C20009B00B0FBF3F0A7FB0030400908FB1060CD
:104C300000013230A7FB0037C7F3431723682F4426
:104C40009F60BDE8F88300BF001001401F85EB5155
:104C500058B310B5044690F839300BB3242384F8C8
:104C600039302268D36823F40053D3602046FFF71D
:104C70005BFE2268136923F4904313612268536931
:104C800023F02A0353612268D36843F40053D360AE
:104C90000020E063202384F8393084F83A3010BDD6
:104CA00080F8383004F076F9D8E70120704700002A
:104CB000022A0AD00921C26822F47052C260C36875
:104CC00043EA8123C36000207047234B0B44234AEF
:104CD00093422FD9224B0B44224A93422CD9A1F55F
:104CE0007403A3F51053204A934227D9A1F183738B
:104CF000A3F5E7431D4A934222D31D4B0B441D4AA3
:104D000093421FD91C4B0B441C4A93421CD31C4B8F
:104D10000B441C4A934219D3A1F1B773A3F558531E
:104D2000194A934214D3194B0B44194A934211D296
:104D30000721C0E70F21BEE70E21BCE70D21BAE72E
:104D40000C21B8E70B21B6E70A21B4E70921B2E745
:104D50000821B0E70621AEE7405327FFFF340C00DF
:104D6000401E1BFF3F420F007F4F120020D6130052
:104D700060B6E5FE5FE3160000D3CEFE40771B0071
:104D8000C05BB3FEC091210020753800E05459FE8D
:104D9000E09C4100890141F02001016100230133C1
:104DA000054A934205D8026912F0200FF7D100207E
:104DB00070470320704700BF400D0300D0F808384B
:104DC00013F0060307D0022B07D0062B01D00F20CB
:104DD000704702207047002070470220704710B5CE
:104DE00091F800C04B78012B23D000F5006ED0F86D
:104DF0001C380CF00F040122A24043EA0243C0F821
:104E00001C3800EB4C10D0F8003B13F4004F0ED1CF
:104E1000D0F8003B8A68C2F30A02C97842EA8142AC
:104E2000134343F0805343F40043C0F8003B002099
:104E300010BDD0F81C280CF00F0E03FA0EF39BB235
:104E40001343C0F81C3800EB4C10D0F8003913F4B1
:104E5000004FECD1D0F800398A68C2F30A02C97851
:104E600042EA814242EA8C5C43EA0C0343F08053FD
:104E700043F40043C0F80039D9E770B40B784C789C
:104E8000012C27D000EB431000F530631C69E40CC3
:104E9000E4041C611C6924F0FF5424F4C0141C6158
:104EA0004C690CB18C684C611C6944F400241C6191
:104EB0001C698D68C5F3120C44EA0C041C61012ABC
:104EC00066D0D0F8003B43F00443C0F8003B00201C
:104ED00070BC70474C696CBB00EB4314D4F810599C
:104EE00025F0FF5525F4C015C4F81059D4F8105911
:104EF00045F40025C4F81059D4F81059ED0CED0410
:104F0000C4F81059012A34D000EB4313D3F8002918
:104F100042F00442C3F800294B69002BD7D0D0F8E7
:104F200034380A7802F00F0101228A401343C0F896
:104F30003438CCE700EB431404F510642569ED0C1C
:104F4000ED042561256925F0FF5525F4C01525617F
:104F50008D684E69AE4200D94D61256945F4002542
:104F6000256125694E69C6F3120C45EA0C052561D9
:104F7000C8E70A691AB100EB4311C1F8142900EB24
:104F80004310D0F8002942F00442C0F800299EE7FF
:104F9000CA68002A95D05A6193E710B59DF8084079
:104FA00084B903334FEA930E4FF0000C08E000EB96
:104FB000023303F5805351F8044B1C600CF1010CD3
:104FC000F445F4D3002010BDF0B583B00B784C78D5
:104FD000012C33D000EB431303F5306CDCF81040A8
:104FE000E40CE404CCF81040DCF8104024F0FF544A
:104FF00024F4C014CCF810404C69002C40F0CA8056
:10500000DCF810408D68C5F312052C43CCF8104035
:10501000DCF8104044F40024CCF81040012A00F0E1
:10502000D380CA78012A00F0D680D3F8002B42F052
:105030000442C3F8002B002003B0F0BD4C6984BBD0
:1050400000EB4314D4F8105925F0FF5525F4C01592
:10505000C4F81059D4F8105945F40025C4F8105973
:10506000D4F81059ED0CED04C4F81059012A4FD0B2
:1050700000EB4313D3F8004944F00444C3F800495B
:10508000CC78012C6DD04B69002BD4D0D0F83438BB
:105090000A7802F00F0101228A401343C0F8343825
:1050A000C9E700EB4314D4F81059ED0CED04C4F833
:1050B0001059D4F8105925F0FF5525F4C015C4F83F
:1050C0001059D4F810598E684F6907EB060C0CF193
:1050D000FF3CBCFBF6FC494E06EACC4C45EA0C050D
:1050E000C4F81059D4F810594E69C6F31206354366
:1050F000C4F8105904F51064CD78012DB6D1256996
:1051000025F0C0452561256945F000552561ADE7CD
:105110000A691AB100EB4314C4F81429CA78012AA9
:1051200008D000EB4313D3F8002942F00442C3F83F
:10513000002980E7D0F8082812F4807F08D100EB1E
:105140004311D1F8002942F00052C1F80029E8E7E4
:1051500000EB4311D1F8002942F08052C1F8002938
:10516000DFE7D0F8084814F4807F0CD1D3F8004969
:1051700044F00054C3F8004900928B8A0A78C96849
:10518000FFF70BFF57E7D3F8004944F08054C3F80A
:105190000049F1E78D682C44013CB4FBF5F4DCF8E0
:1051A00010501FFA84FE154E06EAC4442543CCF87D
:1051B0001050DCF810508C680EFB04F4C4F3120499
:1051C0002C43CCF8104029E7CA68002A3FF429AFE5
:1051D000CCF8142025E7D0F8082812F4807F06D1F7
:1051E000D3F8002B42F00052C3F8002B1DE7D3F890
:1051F000002B42F08052C3F8002B16E70000F81F86
:1052000084460846D11C8908002305E00CF580522D
:10521000126840F8042B01338B42F7D370470B78A8
:105220004A78012A14D000EB4310D0F8002B002A52
:1052300006DB2BB1D0F8003B23F08043C0F8003BE5
:10524000D0F8003B43F40013C0F8003B0020704747
:1052500000EB4310D0F80029002A06DB2BB1D0F870
:10526000003923F08043C0F80039D0F8003943F406
:105270000013C0F80039E9E70B784A78012A0ED00C
:1052800000EB4310D0F8003B23F40013C0F8003BC0
:10529000CB78023BDBB2012B15D90020704700EB25
:1052A0004310D0F8003923F40013C0F80039CB784C
:1052B000023BDBB2012BF0D8D0F8003943F0805329
:1052C000C0F80039E9E7D0F8003B43F08053C0F85C
:1052D000003BE2E7D0F8003823F4FE63C0F8003862
:1052E000D0F80038090101F4FE611943C0F8001834
:1052F000002070474269806910407047D0F8183824
:1053000000F50060C0691840000C7047D0F81838EC
:1053100000F50060C069184080B2704700EB411191
:10532000D1F8082B00F5006040691040704710B4B8
:10533000D0F81048D0F8343801F00F02D340DB0128
:10534000DBB2234300EB411000F510608068184089
:105350005DF8044B7047406900F001007047D0F8D9
:10536000003923F4FF6323F00703C0F8003900F588
:1053700000639A6802F00602042A05D05A6842F4D3
:1053800080725A6000207047D0F8002942F0030272
:10539000C0F80029F2E7000010B4046C154B9C42E1
:1053A00003D9D0F8003B002B16DB0024C0F8104BCB
:1053B000D0F8104B44F40024C0F8104BD0F8104B38
:1053C00044F01804C0F8104BD0F8104B44F0C0441F
:1053D000C0F8104B012903D000205DF8044B704742
:1053E000C0F8142BD0F8003B43F08023C0F8003BFA
:1053F000F2E700BF0A30544F08B5D0F88C322BB119
:105400001B68984700B908BD0220FCE70220FAE7B4
:1054100008B5D0F88C325B689847002008BD38B5D5
:10542000044600F52075284600F037F90123C4F83A
:105430006C32B4F88632C4F8703294F8801201F0FD
:105440001F03012B0ED0022B11D02BB101F08001D4
:10545000204603F081FF03E02946204600F0A8FA29
:10546000002038BD2946204600F0D6FAF8E7294644
:10547000204600F001FBF3E738B504460D4691BB2A
:105480001346D0F86C22032A03D0052A24D00846FC
:1054900033E0D0F84C11D0F8502191420DD9891A3F
:1054A000C0F84C118A4206D98AB21946204600F04B
:1054B000E7FB284621E092B2F7E7D0F88C321B696F
:1054C0001BB190F87422032A04D0204600F0E0FBC0
:1054D000284612E09847F8E70021C0F86C1203F064
:1054E0003BFF284609E0D0F88C329B6933B190F835
:1054F0007422032A04D19847002038BD0220FCE71B
:105500000220FAE738B504460D46002953D1134668
:10551000D0F86C22022A0CD0042A00D01AB98021BB
:10552000204603F019FF94F87832012B3ED028462C
:1055300038BD016A426A91421BD8C169B1FBF2F3DE
:1055400002FB13132BB98A4203D8D0F87032994268
:105550001CD3D4F88C32DB681BB194F87422032A74
:1055600021D08021204603F0F7FE204600F09BFB6F
:10557000D9E78A1A026292B2194600F079FB002339
:105580001A461946204603F007FFCCE700221146D1
:1055900000F06EFB0021C4F870120B460A4620464C
:1055A00003F0FAFEBFE720469847DAE7002384F8C5
:1055B00078322846BCE7D0F88C325B6933B190F87A
:1055C0007422032A04D198470020B1E70220AFE7F4
:1055D0000220ADE770B5044640230022114603F0D7
:1055E000B0FE0125C4F844514026C4F8506133464A
:1055F00000228021204603F0A4FEA561666284F8A3
:1056000074520023C4F86C326360C4F87C32D4F85E
:1056100090322BB1D4F88C325B6800212046984739
:10562000002070BD01740020704790F8743280F83B
:105630007532042380F874320020704790F8753278
:1056400080F874320020704708B590F87432032B4C
:1056500001D0002008BDD0F88C32DB69002BF8D0D7
:105660009847F6E7002070470020704700207047F9
:1056700008B5012280F87422D0F88C225268017992
:105680009047002008BD08B54B88012B00D008BD0D
:10569000C0F87C3200F0FCFAF9E70B7803704B7825
:1056A00043708B78CA7803EB022343800B794A79E5
:1056B00003EB022383808B79CA7903EB0223C38037
:1056C000704710B50446802103F046FE00212046B5
:1056D00003F042FE10BD30B583B005460C464A8843
:1056E000130A013B062B00F28480DFE803F0041666
:1056F0002A8282667300D0F888321B680DF1060199
:10570000007C9847BDF8062012B1E388002B74D1C5
:10571000E388002B7BD003B030BD037C43B9D0F8C5
:105720008C329B6A0DF10600984702234370E9E72B
:10573000D0F88C32DB6A0DF10600984702234370E3
:10574000E0E7D2B2052A34D8DFE802F0030B131BDE
:10575000232BD0F888325B680DF10601007C984756
:10576000D0E7D0F888329B680DF10601007C98479D
:10577000C8E7D0F88832DB680DF10601007C984755
:10578000C0E7D0F888321B690DF10601007C98470C
:10579000B8E7D0F888325B690DF10601007C9847C4
:1057A000B0E7D0F888329B690DF10601007C98477C
:1057B000A8E72146FFF785FFADE7037C33B9D0F8B2
:1057C0008C325B6B0DF1060098479BE72146FFF793
:1057D00078FFA0E7037C43B9D0F88C321B6B0DF146
:1057E00006009847072343708CE72146FFF769FFBF
:1057F00091E72146FFF765FF8DE79A4228BF1A46D9
:10580000ADF806200146284600F025FA80E7284634
:1058100000F03EFA7FE738B504468B88F3B9CB88B1
:10582000E3B94B887F2B19D803F07F0590F87432C9
:10583000032B0CD080F87652294603F09DFD2046BC
:1058400000F026FA35B1022384F8743209E0FFF73C
:1058500038FF06E0012384F8743202E02046FFF7A7
:1058600030FF38BD38B504460D468978284B19708D
:1058700001290ED890F87432022B0ED0032B21D0C0
:105880002946FFF71EFF224B19782046FFF7C0FD7F
:1058900002E02946FFF715FF38BD81B141600323BF
:1058A00080F87432FFF7A8FD022803D0204600F0EC
:1058B000EFF9F1E729462046FFF703FFECE700F098
:1058C000E7F9E9E789B1436899421DD0D9B2FFF7FA
:1058D0009FFD0F4B197861602046FFF78DFD022870
:1058E0000DD0204600F0D4F9D6E7022380F87432B8
:1058F0004160FFF78DFD204600F0CAF9CCE729464C
:105900002046FFF7DEFEC7E700F0C2F9C4E700BF9C
:10591000B404002008B5CB88012B0AD190F874326A
:10592000022B09D9032B09D10122011D00F093F9A3
:1059300001E0FFF7C6FE08BD5BB213B9FFF7C1FE79
:10594000F9E70146002341F8083F012200F083F9FE
:10595000F1E708B590F87432013B022B12D8CB88DE
:10596000022B0CD10123C360D0F87C320BB103238E
:10597000C360022200F10C0100F06DF908BDFFF7D1
:10598000A0FEFBE7FFF79DFEF8E708B590F874323C
:10599000013B022B09D84B88012B00D008BD002306
:1059A000C0F87C3200F074F9F8E7FFF78AFEF5E7FB
:1059B00008B50B7803F06003202B05D0402B03D0F3
:1059C00043B1FFF77EFE03E0D0F88C329B68984726
:1059D000002008BD4B78092B1BD8DFE803F0111716
:1059E0001A141A08051A0E0BFFF775FEF0E7FFF7F9
:1059F00012FFEDE7FFF736FFEAE7FFF78BFFE7E778
:105A0000FFF7A7FFE4E7FFF73EFEE1E7FFF7BDFF83
:105A1000DEE7FFF756FEDBE738B505460C460B78A8
:105A200003F06003202B06D0402B04D01BB1FFF7FE
:105A300048FE002038BD95F87432013B022B16D881
:105A40002379012B0ED8D5F88C329B682146284645
:105A50009847E388002BECD10028EAD1284600F0D3
:105A600017F9E6E721462846FFF72BFEE1E7214636
:105A70002846FFF726FEDCE770B505468B880C78D4
:105A800004F06004202C07D0DAB2402C04D05CB1C2
:105A9000FFF717FE002405E0D5F88C329B682846F6
:105AA00098470024204670BD202C09D04E78012E46
:105AB00033D0032E0AD0002E55D0FFF702FEF1E7B7
:105AC000D0F88C329B6898470446EBE790F8743224
:105AD000022B04D0032B11D0FFF7F3FDE2E70AB14C
